:1070000055C000006EC000006CC000006AC00000E7
:1070100068C0000066C0000064C0000062C00000DC
:1070200060C000005EC00000A2C100005AC00000A5
:1070300058C0000056C0000054C0000052C00000FC
:1070400050C000004EC000004CC000004AC000000C
:1070500048C0000046C0000044C0000042C000001C
:1070600040C000003EC000003CC000003AC000002C
:1070700038C0000036C0000034C0000032C000003C
:1070800030C000002EC000002CC000002AC000004C
:1070900028C0000026C0000024C0000022C000005C
:1070A00020C000001EC000001CC0000011241FBE34
:1070B000CFEFDAE0DEBFCDBF11E0A0E0B1E0EEED52
:1070C000F7E702C005900D92AA34B107D9F711E095
:1070D000AAE4B1E001C01D92A435B107E1F77ED06A
:1070E0007CC38ECF1F9380914C018F77813209F042
:1070F0005FC080914D01893009F05AC08091E8004D
:10710000877F8093E8008091E80082FFFCCF809128
:10711000F1009091F100AC018FEF4F3F580719F447
:10712000109200013FC083E0FA0180935700E89578
:1071300007B600FCFDCFA0E0B0E011E02091F30025
:107140008091F200322F20E090E0822B932B892B4C
:1071500049F48091E8008B778093E8008091E80003
:1071600082FFFCCF8091F100682F8091F100782F91
:10717000FD01EE0FFF1FE40FF51F0B0110935700E9
:10718000E89511241196A034B105C1F685E0FA0105
:1071900080935700E89507B600FCFDCF81E180930E
:1071A0005700E8958091E8008B778093E80069D0DC
:1071B0001F91089581E061EC42E350C084B7877F5E
:1071C00084BF88E10FB6F89480936000109260004D
:1071D0000FBE81E085BF82E085BFB1C0729A62991F
:1071E0001CC0209A289AEADF789401C0E4D28091EA
:1071F00000018823D9F78091E00081608093E0004E
:1072000028982CE088E190E00FB6F894A895809338
:1072100060000FBE20936000FFCF80E090E00895F3
:10722000FA01913029F486E191E022E130E012C0C8
:10723000923029F488E291E022E230E00BC09132F2
:1072400029F081E091E025E130E004C08AE391E09B
:1072500029E030E091838083C90108958093E9009B
:107260008091EB0081608093EB001092ED006093C1
:10727000EC004093ED008091EE00881F8827881F66
:10728000089580914C0188238CF403C08EB3882329
:10729000B1F08091E80082FFF9CF8091E8008B7710
:1072A0008093E80008958EB3882349F08091E80028
:1072B00080FFF9CF8091E8008E778093E8000895F1
:1072C000EF92FF920F931F9345D04CD008ED10E042
:1072D000F80180818F7780838081806880838081BE
:1072E0008F7D808319BC1EBA10924A0180EEE82E71
:1072F000F12CF70180818B7F8083F8018081816090
:10730000808380E060E042E0A9DFE1EEF0E0808190
:107310008E7F8083E2EEF0E08081816080838081D7
:1073200088608083F70180818E7F8083F80180816F
:10733000806180831F910F91FF90EF900895E7ED9A
:10734000F0E08081816080838AE482BF81E0809365
:107350004B01B6CFE8EDF0E080818E7F8083109204
:10736000E20008951092DA001092E10008951F9251
:107370000F920FB60F9211242F933F934F935F9369
:107380006F937F938F939F93AF93BF93EF93FF93ED
:107390008091DA0080FF1BC08091D80080FF17C069
:1073A0008091DA008E7F8093DA008091D90080FF8F
:1073B0000BC080E189BD82E189BD09B400FEFDCF2B
:1073C00081E08EBBF7D103C019BC1EBAF3D1809106
:1073D000E10080FF17C08091E20080FF13C0809120
:1073E000E2008E7F8093E2008091E20080618093D2
:1073F000E2008091D80080628093D80019BC85E0BB
:107400008EBBD8D18091E10084FF2CC08091E20036
:1074100084FF28C080E189BD82E189BD09B400FEF6
:10742000FDCF8091D8008F7D8093D8008091E100BE
:107430008F7E8093E1008091E2008F7E8093E20056
:107440008091E20081608093E20080914A0188236C
:1074500031F48091E30087FD02C081E001C084E047
:107460008EBBA8D18091E10083FF21C08091E20012
:1074700083FF1DC08091E100877F8093E10082E05F
:107480008EBB10924A018091E1008E7F8093E100D3
:107490008091E2008E7F8093E2008091E200806123
:1074A0008093E20080E060E042E0D8DE83D1FF918B
:1074B000EF91BF91AF919F918F917F916F915F916C
:1074C0004F913F912F910F900FBE0F901F901895E5
:1074D0009C0140915201509153014617570718F4EF
:1074E000F90190E044C06115710511F0AB01F8CFCE
:1074F0008091E8008E778093E80040E050E0F0CF84
:107500008EB3882309F444C0853009F443C08091C8
:10751000E80083FF02C081E008958091E80082FDC9
:1075200031C08091E80080FF22C08091F3009091EB
:10753000F200782F60E0292F30E0262B372B07C090
:1075400081918093F100415050402F5F3F4F411592
:10755000510519F02830310598F390E028303105B5
:1075600009F491E08091E8008E778093E80041155E
:10757000510531F6992321F605C08EB3882341F0D9
:10758000853041F08091E80082FFF7CF80E00895D8
:1075900082E0089583E008950F931F93DF93CF93C4
:1075A00000D0CDB7DEB7ECE4F1E08091F10081933B
:1075B00081E0E435F807C9F795DD8091E80083FFA5
:1075C000E4C080914C0190914D01953009F46DC05B
:1075D000963040F4913081F1913070F0933009F0A1
:1075E000D4C02AC0983009F4A3C0993009F4B2C0BD
:1075F000963009F0CAC07CC0803809F4C6C0823811
:1076000009F0C3C08091500187708093E900809198
:10761000EB001092E9002091E800277F2093E8001A
:1076200090E025E0969587952A95E1F78170809303
:10763000F1001092F10087C0882319F0823009F020
:10764000A4C08F71823009F0A0C080914E018823C0
:1076500031F520915001277009F497C02093E9007B
:107660008091EB0080FF1BC0933021F48091EB00F0
:10767000806213C08091EB0080618093EB0081E019
:1076800090E002C0880F991F2A95E2F78093EA00E4
:107690001092EA008091EB0088608093EB001092DA
:1076A000E9008091E800877F51C0882309F06DC010
:1076B00010914E011F770FB7F8948091E800877FF3
:1076C0008093E800DEDD8091E80080FFFCCF8091B0
:1076D000E3008078812B8093E30080688093E3004F
:1076E000112311F482E001C083E08EBB0FBF4DC0B7
:1076F0008058823008F049C080914E0190914F012E
:1077000060915001AE014F5F5F4F8ADDBC01009771
:1077100009F43BC08091E800877F8093E80089816D
:107720009A81D6DE8091E8008B778093E8002DC0A7
:10773000803859F58091E800877F8093E800809138
:107740004A018093F1008091E8008E778093E800F1
:1077500098DD1BC08823C9F490914E019230A8F4A3
:107760008091E800877F8093E80090934A0189DD4B
:1077700080914A01882331F48091E30087FD02C0A3
:1077800081E001C084E08EBB15DD8091E80083FFBD
:107790000AC08091EB0080628093EB008091E8004A
:1077A000877F8093E8000F900F90CF91DF911F911A
:1077B0000F91089508951F938EB3882361F010915F
:1077C000E9001092E9008091E80083FF01C0E4DE47
:0E77D00017701093E9001F910895F894FFCFF1
:1077DE000106DCFF09FBA1010902150025FF750852
:1077EE009682009102C01201100100000008EB0306
:1077FE006720010000000001090222000101008043
:10780E0032090400000103000000092111010001EA
:0A781E002215000705810340000158
:040000030000700089
:00000001FF
