:100000000C9456000C9460000C9460000C946000FA
:100010000C9460000C9460000C9460000C946000E0
:100020000C9460000C9460000C9460000C946000D0
:100030000C9460000C9460000C9460000C946000C0
:100040000C9460000C9460000C9460000C946000B0
:100050000C9460000C9460000C9460000C946000A0
:100060000C9460000C9460000C9460000C94600090
:100070000C9460000C9460000C9460000C94600080
:100080000C9460000C9460000C9460000C94600070
:100090000C9460000C9460000C9460000C94600060
:1000A0000C9460000C9460000C94600011241FBE3E
:1000B000CFEFDAE0DEBFCDBF0E9462000C941001EA
:1000C0000C9400000E947C0080E060E80E94F00038
:1000D00081E060E80E94F000209A209A91E02FEFE2
:1000E00033ED40E3215030404040E1F700C00000D4
:1000F00085B1892785B9F3CFF894E1E6F0E080E88F
:100100008083808180837894209A0E94C60008951D
:100110008430E1F0853038F4823081F0833090F41F
:10012000813021F507C08630C9F0863098F08730DD
:10013000E9F417C081E04C9919C016C081E04E99CE
:1001400015C012C081E01C9911C00EC081E07D99DC
:100150000DC00AC081E07C9909C006C08FB18170D2
:10016000089581E0799902C080E0089508950E9481
:10017000880008950E948800089528980895289A74
:10018000089585B191E0892785B9089589EA80931A
:10019000800089E0809381001092820082E8809341
:1001A000C00081E08093C10089E88093C200109272
:1001B000C3001092C4008FEF8093D1001092890089
:1001C0001092880010928B0010928A001092CF003B
:1001D0001092D20084B1806684B93F9A579A0895EC
:1001E000161614F0662329F0962F90582FE7261B39
:1001F00002C02FEF9FEF882361F430E03093890035
:1002000020938800892F90E090938B0080938A0040
:100210000895813021F42093CF009093D200089567
:04022000F894FFCF80
:00000001FF
