:100000000C9456000C9460000C9460000C946000FA
:100010000C9460000C9460000C9460000C946000E0
:100020000C9460000C9460000C9460000C946000D0
:100030000C9460000C9460000C9460000C946000C0
:100040000C9460000C9460000C9460000C946000B0
:100050000C9460000C9460000C9460000C946000A0
:100060000C9460000C9460000C9460000C94600090
:100070000C9460000C9460000C9460000C94600080
:100080000C9460000C9460000C9460000C94600070
:100090000C9460000C9460000C9460000C94600060
:1000A0000C9460000C9460000C94600011241FBE3E
:1000B000CFEFDAE0DEBFCDBF0E9462000C947F007C
:1000C0000C94000084B1816684B98AB1806A8AB9CF
:1000D0006E9A3F9A769A8BB1806A8BB92D9A88B1C5
:1000E00088B991E02FEF33ED40E32150304040409C
:1000F000E1F700C0000085B1892785B9F3CFF894F6
:02010000FFCF2F
:00000001FF
